:100000000C9469000C94BD000C94CD000C947B0002
:100010000C947B000C947B000C947B000C947B0074
:100020000C947B000C947B000C947B000C947B0064
:100030000C947B000C947B000C947B000C947B0054
:100040000C947B000C947B000C947B000C947B0044
:100050000C947B000C947B000C947B000C947B0034
:100060000C947B000C947B000C947B000C947B0024
:100070000C947B000C947B000C947B000C947B0014
:100080000C947B000C947B000C947B000C947B0004
:100090000C947B000C947B000C947B000C947B00F4
:1000A0000C947B000C947B000C947B000C947B00E4
:1000B0000C947B0005A84CCDB2D44EB93836A902B9
:1000C0000C50B9918688083CA6AAAA2ABE00000056
:1000D000803F11241FBECFEFD8E0DEBFCDBF21E0AF
:1000E000A0E0B1E001C01D92AA30B207E1F70E9482
:1000F000DE000C9438090C94000080E480937C00AE
:1001000086E880937A0010927B000895ECE7F0E097
:100110009081892B8083EAE7F0E08081806480838E
:10012000808184FFFDCF809178002091790090E05C
:10013000922B08959B01AC01A4EEBCE00E944808FC
:10014000DC01CB01072E7AE0B695A79597958795A8
:100150007A95D1F7702D0895E9E6F0E0808182600C
:100160008083808181608083E89A80818860808339
:10017000808184608083E99A08951F920F920FB660
:100180000F9211248F9316BC81E0809301018F910F
:100190000F900FBE0F901F9018951F920F920FB6E1
:1001A0000F9211248F931092010186B58093000164
:1001B0008F910F900FBE0F901F901895CF93DF93E4
:1001C000CDB7DEB7CF50D1400FB6F894DEBF0FBE2B
:1001D000CDBF60E875E280E090E00E9481040E945B
:1001E0007D000E9479040E94AC0017B81AB88FEF06
:1001F00084B97894809101018823E1F38091010111
:100200008130E1F36091000170E080E090E00E94B5
:100210000A062FE632E143E85AE30E94230720E072
:1002200030E040E850E40E94230723EC35EF48EC2F
:1002300050E40E9423070E94260520E030E04AE7B0
:1002400054E40E942307C85FDE4F688379838A8362
:100250009B83C850D140F894612CCE0101962C01AB
:100260004E0191E8890E911CC45FDE4F4882CC504C
:10027000D140C35FDE4F5882CD50D140762CC25F53
:10028000DE4F8882CE50D140C15FDE4F9882CF5082
:10029000D14010E0D12C862D811113C0872D0E94F2
:1002A0008600BC0180E090E00E949A00ED2DF0E015
:1002B000EE0FFF1FE80DF91D91838083D39484E036
:1002C00027C0843029F50E948600BC0180E090E0C0
:1002D0000E949A00E12EF12CEE0CFF1CE40CF51CA0
:1002E000BC0180E090E00E9408062DE33AE047E977
:1002F0005FE30E942B052BE332EC41E35FE30E94B6
:100300002B050E94D905F701718360831F5F872D3C
:10031000103410F2C25FDE4F8881CE50D140C15FF1
:10032000DE4F9881CF50D1400E947B02CF5FDE4FDD
:100330002883C150D140CE5FDE4F3883C250D140B8
:10034000242E352ECD5FDE4F6883C350D140CC5F65
:10035000DE4F7883C450D140CB5FDE4F8883C550D9
:10036000D140CA5FDE4F9883C650D140C45FDE4F94
:100370008881CC50D140C35FDE4F9881CD50D140B1
:100380000E947B02A22EB32EC42ED52EE62EF72E6F
:10039000C95FDE4F8883C750D140192FCF5FDE4F32
:1003A0002881C150D140CE5FDE4F3881C250D1404C
:1003B000422D532DCD5FDE4F6881C350D140CC5FBD
:1003C000DE4F7881C450D140CB5FDE4F8881C5506D
:1003D000D140CA5FDE4F9881C650D1400E94450689
:1003E00023EF34E045EB5FE30E9423072DE33AE07F
:1003F00047E95FE30E9423070E94A20501E00E94F3
:10040000EB0202E02A2D3B2D4C2D5D2D6E2D7F2D14
:10041000C95FDE4F8881C750D140912F0E94EB0207
:10042000C95FDE4F0881C750D140CF5FDE4F2881C2
:10043000C150D140CE5FDE4F3881C250D140422DF5
:10044000532DCD5FDE4F6881C350D140CC5FDE4F6E
:100450007881C450D140CB5FDE4F8881C550D140F8
:10046000CA5FDE4F9881C650D1400E9453080F2EBC
:10047000F8EEAF2EF02D0F2EF3E0BF2EF02DC62C90
:10048000D62CE62CF62C062D162D0E94AE080E94C6
:1004900045066B017C0120E030E04AE754E4C85F88
:1004A000DE4F688179818A819B81C850D1400E944A
:1004B0002B059B01AC01C701B6010E9423070E94D6
:1004C000A20503E00E94EB02C85FDE4F68817981DC
:1004D0008A819B81C850D1400E94A20504E00E94FD
:1004E000EB02FFEF23E284EFF15020408040E1F780
:1004F00000C00000CECE3F924F925F926F927F92EB
:100500008F929F92AF92BF92CF92DF92EF92FF9223
:100510000F931F93CF93DF935C014C0180E8880E0B
:10052000911CD12CE12CF12C10E0D0E0C0E0312C5A
:10053000C12CF501619171915F0180E090E00E9412
:1005400008062B013C012D2D3E2D4F2D512F6D2FD7
:100550007C2F832D9C2D0E9445066B017C01A301FD
:100560009201C301B2010E9423079B01AC01C701A4
:10057000B6010E94BA040E94A205D22EE32EF42EE8
:10058000152FD62FC72F382EC92EA814B90489F6D7
:1005900006E02D2D3E2D4F2D512F6D2F7C2F832DBD
:1005A0009C2D0E940D090E9445060E9496070E94FC
:1005B000A205DF91CF911F910F91FF90EF90DF90F7
:1005C000CF90BF90AF909F908F907F906F905F90F3
:1005D0004F903F9008952F923F924F925F926F926B
:1005E0007F928F929F92AF92BF92CF92DF92EF92C3
:1005F000FF920F931F93CF93DF9300D000D0CDB71E
:10060000DEB729833A83942E852E562E472E382E18
:10061000292EE2E0F1E08DE381838AE087830230D6
:1006200009F458C018F4013041F03AC1033009F41C
:100630009EC0043009F4E8C033C186E5809302010E
:1006400002E011E00F2EF3E06F2E712CF02D1C83D1
:100650000B8308C0EFEF6E1A7E0A8B819C81019795
:100660009C838B8395E06916710421F4EEE2E0939C
:100670000601F0CF0F2EFAE0AF2EF02DB12CC12CD9
:10068000D12CE12CF12C00E010E029813A81492D98
:10069000582D652D742D832D922D0E94AC08205D60
:1006A000EB81FC81268329813A81492D582D652DC6
:1006B000742D832D922D0E94AE0829833A83942EA7
:1006C000852E562E472E382E292EF7E06F167104F0
:1006D0000CF2E6C089E48093020102E011E00F2EE3
:1006E000F3E06F2E712CF02D1C830B8308C0EFEF0D
:1006F0006E1A7E0A8B819C8101979C838B8394E088
:100700006916710421F4EEE2E0930701F0CF0F2E99
:10071000FAE0AF2EF02DB12CC12CD12CE12CF12C14
:1007200000E010E029813A81492D582D652D742D66
:10073000832D922D0E94AC08205DEB81FC812683E5
:1007400029813A81492D582D652D742D832D922DA7
:100750000E94AE0829833A83942E852E562E472E6A
:10076000382E292EF7E06F1671040CF299C080E53F
:100770008093020102E011E00F2EF3E06F2E712C46
:10078000F02D1C830B8308C0EFEF6E1A7E0A8B815D
:100790009C8101979C838B8396E06916710421F4F8
:1007A000EEE2E0930501F0CF0F2EFAE0AF2EF02D30
:1007B000B12CC12CD12CE12CF12C00E010E02981CE
:1007C0003A81492D582D652D742D832D922D0E942F
:1007D000AC08205DEB81FC81268329813A81492D7B
:1007E000582D652D742D832D922D0E94AE082983DE
:1007F0003A83942E852E562E472E382E292EF7E03A
:100800006F1671040CF24CC086E48093020102E082
:1008100011E00F2EF3E06F2E712CF02D1C830B8353
:1008200008C0EFEF6E1A7E0A8B819C8101979C8332
:100830008B8396E06916710421F4EEE2E0930501E2
:10084000F0CF0F2EFAE0AF2EF02DB12CC12CD12C11
:10085000E12CF12C00E010E029813A81492D582D3E
:10086000652D742D832D922D0E94AC08205DEB81A7
:10087000FC81268329813A81492D582D652D742DBF
:10088000832D922D0E94AE0829833A83942E852EC3
:10089000562E472E382E292EF7E06F1671040CF2D3
:1008A00082E091E00AE011E09C838B83EB81FC8184
:1008B0008191FC83EB830E94B6048B819C8180171D
:1008C0009107A1F70F900F900F900F90DF91CF91AC
:1008D0001F910F91FF90EF90DF90CF90BF90AF905E
:1008E0009F908F907F906F905F904F903F902F9050
:1008F000089583E085BD84B5826084BD8AEF87BD9D
:1009000008951092C000E1ECF0E02081286020837F
:10091000E2ECF0E0208126602083DC01CB01880F2F
:10092000991FAA1FBB1F880F991FAA1FBB1F9C01DD
:10093000AD01220F331F441F551F220F331F441FC9
:10094000551F60E074E284EF90E00E942608215079
:1009500031093093C5002093C4000895E0ECF0E025
:10096000908195FFFDCF8093C60008950E94AE044C
:1009700008955058BB27AA270E94D1040C94D5068D
:100980000E949C0638F00E94A30620F039F49F3F95
:1009900019F426F40C9489060EF4E095E7FB0C9408
:1009A0008306E92F0E94FA0658F3BA176207730705
:1009B0008407950720F079F4A6F50C941C070EF433
:1009C000E0950B2EBA2FA02D0B01B90190010C015F
:1009D000CA01A0011124FF27591B99F0593F50F477
:1009E000503E68F11A16F040A22F232F342F4427CF
:1009F000585FF3CF469537952795A795F0405395C7
:100A0000C9F77EF41F16BA0B620B730B840BBAF096
:100A10009150A1F0FF0FBB1F661F771F881FC2F701
:100A20000EC0BA0F621F731F841F48F48795779515
:100A30006795B795F7959E3F08F0B0CF9395880FCF
:100A400008F09927EE0F9795879508950E94AC06B8
:100A5000E3950C94E6060E943F050C94D5060E948F
:100A6000A30658F00E949C0640F029F45F3F29F04D
:100A70000C94830651110C941D070C9489060E9456
:100A8000FA0668F39923B1F3552391F3951B550B9F
:100A9000BB27AA2762177307840738F09F5F5F4F51
:100AA000220F331F441FAA1FA9F335D00E2E3AF090
:100AB000E0E832D091505040E695001CCAF72BD0A8
:100AC000FE2F29D0660F771F881FBB1F26173707F9
:100AD0004807AB07B0E809F0BB0B802DBF01FF272B
:100AE00093585F4F3AF09E3F510578F00C9483067F
:100AF0000C941D075F3FE4F3983ED4F386957795F9
:100B00006795B795F7959F5FC9F7880F911D9695E3
:100B1000879597F90895E1E0660F771F881FBB1F3F
:100B2000621773078407BA0720F0621B730B840BEC
:100B3000BA0BEE1F88F7E0950895BEE304D008F4E1
:100B400090E80895BFE322273327A9010E940207F6
:100B500060F19F5748F1B91740F1BFE3B91B9927DE
:100B6000B8503AF4660F771F881F991FB395D2F3D8
:100B700016C0B8504AF0232F342F452F562F672F19
:100B8000782F8827B850BAF7B85F49F086957795DF
:100B900067955795479537952795BA95B9F716F400
:100BA0000E948C0688940895889460E070E0CB01E0
:100BB00008950E94020788F09F5798F0B92F99274F
:100BC000B751B0F0E1F0660F771F881F991F1AF038
:100BD000BA95C9F714C0B13091F00E941C07B1E07A
:100BE00008950C941C07672F782F8827B85F39F079
:100BF000B93FCCF3869577956795B395D9F73EF4D1
:100C000090958095709561957F4F8F4F9F4F089578
:100C1000E89409C097FB3EF4909580957095619596
:100C20007F4F8F4F9F4F9923A9F0F92F96E9BB274C
:100C30009395F695879577956795B795F111F8CFC8
:100C4000FAF4BB0F11F460FF1BC06F5F7F4F8F4F33
:100C50009F4F16C0882311F096E911C0772321F029
:100C60009EE8872F762F05C0662371F096E8862FC1
:100C700070E060E02AF09A95660F771F881FDAF718
:100C8000880F9695879597F90895E894F92F96EB34
:100C9000FF2381F0121613061406440B9395F69564
:100CA00087957795679557954040FF23B9F71BC007
:100CB00099270895882351F49850D2F7872B762FDF
:100CC000652F542F432F322F20E0B1F31216130655
:100CD0001406440B88233AF09A95440F551F661F5B
:100CE000771F881FCAF755234AF4440F551F11F484
:100CF00060FF04C06F5F7F4F8F4F9F4F880F9695A7
:100D0000879597F9089597F99F6780E870E060E00C
:100D100008959FEF80EC089590958095709560956B
:100D200050954095309521953F4F4F4F5F4F6F4FF6
:100D30007F4F8F4F9F4F089500240A941616170671
:100D400018060906089500240A94121613061406BC
:100D5000050608950C9489060E940207D8F3E894CA
:100D6000E0E0BB279F57F0F02AED3FE049EC06C0DA
:100D7000EE0FBB0F661F771F881F28F0B23A62077D
:100D80007307840728F0B25A620B730B840BE39548
:100D90009A9572F7803830F49A95BB0F661F771FCB
:100DA000881FD2F790480C94D807092E0394000CA2
:100DB00011F4882352F0BB0F40F4BF2B11F460FFF5
:100DC00004C06F5F7F4F8F4F9F4F0895EF93E0FFF9
:100DD00007C0A2EA2AED3FE049EC5FEB0E94D10494
:100DE0000E94D5060F90039401FC9058E4EBF0E0CC
:100DF0000C94EB0757FD9058440F551F59F05F3F77
:100E000071F04795880F97FB991F61F09F3F79F02C
:100E100087950895121613061406551FF2CF4695AE
:100E2000F1DF08C0161617061806991FF1CF869530
:100E30007105610508940895E894BB276627772714
:100E4000CB0197F908950E9436070C94D5060E94AD
:100E50009C0638F00E94A30620F0952311F00C9414
:100E600083060C94890611240C941D070E94FA062F
:100E700070F3959FC1F3950F50E0551F629FF001ED
:100E8000729FBB27F00DB11D639FAA27F00DB11D06
:100E9000AA1F649F6627B00DA11D661F829F22278F
:100EA000B00DA11D621F739FB00DA11D621F839F16
:100EB000A00D611D221F749F3327A00D611D231FEC
:100EC000849F600D211D822F762F6A2F11249F573A
:100ED00050409AF0F1F088234AF0EE0FFF1FBB1F3D
:100EE000661F771F881F91505040A9F79E3F5105FC
:100EF00080F00C9483060C941D075F3FE4F3983E4A
:100F0000D4F3869577956795B795F795E7959F5FA5
:100F1000C1F7FE2B880F911D9695879597F9089537
:100F200019F416F40C9489060C94D6070E94020753
:100F3000B8F39923C9F3B6F39F57550B87FF0E9467
:100F4000E4070024A0E640EA900180585695979562
:100F500028F4805C660F771F881F20F0261737075C
:100F6000480730F4621B730B840B202931294A2B6C
:100F7000A69517940794202531254A2758F7660F20
:100F8000771F881F20F026173707480730F4620BB9
:100F9000730B840B200D311D411DA09581F7B90104
:100FA000842F9158880F9695879508959F3F31F02B
:100FB000915020F4879577956795B795880F911D87
:100FC0009695879597F9089591505040660F771F31
:100FD000881FD2F708959F938F937F936F93FF930A
:100FE000EF939B01AC010E942307EF91FF910E94B8
:100FF000FF072F913F914F915F910C942307DF934F
:10100000CF931F930F93FF92EF92DF927B018C019E
:10101000689406C0DA2EEF010E943607FE01E894BC
:10102000A5912591359145915591A6F3EF010E9427
:10103000D104FE019701A801DA9469F7DF90EF90DF
:10104000FF900F911F91CF91DF910895A1E21A2E89
:10105000AA1BBB1BFD010DC0AA1FBB1FEE1FFF1F5C
:10106000A217B307E407F50720F0A21BB30BE40BAC
:10107000F50B661F771F881F991F1A9469F76095F3
:101080007095809590959B01AC01BD01CF010895AD
:101090000E942909A59F900DB49F900DA49F800DDB
:1010A000911D11240895DF93CF931F930F939A9D61
:1010B000F02D219FF00D8B9DF00D8A9DE02DF10DFF
:1010C000039FF00D029FE00DF11D4E9DE00DF11DFF
:1010D0005E9DF00D4F9DF00D7F936F93BF92AF9289
:1010E0005F934F93D5010E9429098B01AC01D70171
:1010F0000E942909EB01E80FF91FD6010E94A308FD
:101100002F913F91D6010E942909C60FD71FE81FD2
:10111000F91FAF91BF910E94A3082F913F910E94A8
:101120002909C60FD71FE81FF91FD6010E942909F8
:10113000E60FF71F9801BE01CF0111240F911F91F7
:10114000CF91DF9108950E942909460F571FC81FAC
:10115000D91F08F431960895689401C0E8948F92DD
:101160009F92CF93DF930E94BA08DF91CF919F9017
:101170008F90089588249924F401E401B0E49F93AA
:10118000AA279A158B049C04ED05FE05CF05D00710
:10119000A10798F4AD2FDC2FCF2FFE2FE92D982C2F
:1011A000892E982F872F762F652F542F432F322F7C
:1011B0002227B85031F7BF9127C01B2EBF91BB2704
:1011C000220F331F441F551F661F771F881F991F4B
:1011D000881C991CEE1FFF1FCC1FDD1FAA1FBB1F01
:1011E0008A149B04EC05FD05CE05DF05A007B107B9
:1011F00048F08A189B08EC09FD09CE09DF09A00B0D
:10120000B10B21601A94E1F62EF49401AF01BE01F6
:10121000CD01000C089597FB10F8169400080F9369
:10122000083098F00850232F342F452F562F672F62
:10123000782F892F902DF4CF0594979587957795E2
:10124000679557954795379527950A95AAF70F9172
:101250000895A29FB001B39FC001A39F700D811D8F
:101260001124911DB29F700D811D1124911D0895AF
:04127000F894FFCF20
:00000001FF
