S00D00004C616230362E73726563A2
S11300000C945A000C9464000C9464000C946400E6
S11300100C9464000C9464000C9464000C946400CC
S11300200C9464000C9464000C9464000C946400BC
S11300300C9464000C9464000C9464000C946400AC
S11300400C9464000C9464000C9464000C9464009C
S11300500C9464000C9464000C9464000C9464008C
S11300600C9464000C9464000C9464000C9464007C
S11300700C9464000C9464000C9464000C9464006C
S11300800C9464000C9464000C9464000C9464005C
S11300900C9464000C9464000C9464000C9464004C
S11300A00C9464000C9464000C9464000C9464003C
S11300B00C94640011241FBECFEFD8E0DEBFCDBF87
S11300C00E9499000C949B010C94000080E480939E
S11300D07C0087E880937A0010927B0008959091C9
S11300E07C00907F90937C0090917C00892B80937E
S11300F07C0080917A00806480937A0080917A00F9
S113010084FFFCCF809178002091790090E0922BBD
S113011008959B01AC01A8E8B3E10E948101DC01D0
S1130120CB012AE0B695A795979587952A95D1F79F
S113013008957F928F929F92AF92BF92CF92DF9257
S1130140EF92FF920F931F93CF93DF93CDB7DEB758
S1130150C058D1090FB6F894DEBF0FBECDBF0E94C0
S1130160660060E875E280E090E00E9424017E0170
S113017051E6E50EF11C570180E2A80EB11C87017F
S1130180670181E00E946F00BC0180E090E00E9462
S11301908900D8018D939D938D01E9EFF0E03197AB
S11301A0F1F700C00000AA16BB0659F78E010F5FD5
S11301B01F4FF8018AE0A82EB12C9CE2792E40E270
S11301C0D7018D919D917D0123E030E04F01820E96
S11301D0931EB5010E944B01805DD4018C93CB0129
S11301E02150310998F7748245833696EC15FD0544
S11301F039F7E12CF12CF801EE0DFF1D80810E94EE
S11302004901EFEFEE1AFE0AF6E0EF16F10499F752
S11302100A5F1F4FC016D10661F780E090E0C05816
S1130220DF4F0FB6F894DEBF0FBECDBFDF91CF9185
S11302301F910F91FF90EF90DF90CF90BF90AF9000
S11302409F908F907F9008951092C00028E0209393
S1130250C10026E02093C2009B01AC0184E0220F80
S1130260331F441F551F8A95D1F760E074E284EF71
S113027090E00E945F01215031093093C500209322
S1130280C40008959091C00095FFFCCF8093C600F0
S113029008950C944201AA1BBB1B51E107C0AA1F7D
S11302A0BB1FA617B70710F0A61BB70B881F991F13
S11302B05A95A9F780959095BC01CD010895A1E2C6
S11302C01A2EAA1BBB1BFD010DC0AA1FBB1FEE1FCC
S11302D0FF1FA217B307E407F50720F0A21BB30B17
S11302E0E40BF50B661F771F881F991F1A9469F793
S11302F060957095809590959B01AC01BD01CF01EF
S113030008950E948C01A59F900DB49F900DA49F09
S1130310800D911D11240895A29FB001B39FC001C7
S1130320A39F700D811D1124911DB29F700D811D1D
S10D03301124911D0895F894FFCFE5
S9030000FC
